HSPDEXT    20230306                                                                                    
D09200000014714390010000010   360000150000000 230306036303MEGA LOAN ON CARD                       O042600000187267
D09200000024714390010000010   360000150000000 230306036305MEGA LOAN ON CARD                       O042600000187267
D09200000034714390010000010   360000002500000 230306036306MEGA LOAN ON CARD                       O042600000187267
D09200000044714390010000010   360000002500000 230306036526MEGA LOAN ON CARD                       O042600000187267
D09200000054714390010000010   360000002500000 230306036535MEGA LOAN ON CARD                       O042600000187267
D09200000064714390010000010   360000002500000 230306036536MEGA LOAN ON CARD                       O042600000187267
D09200000074714390010000010   360000002500000 230306036543MEGA LOAN ON CARD                       O042600000187267
D09200000084714390010000010   360000001000000 230306036545MEGA LOAN ON CARD                       O042600000187267
D09200000094714390010000010   360000001000000 230306036546MEGA LOAN ON CARD                       O042600000187267
D09200000104714390010000010   360000001000000 230306036547MEGA LOAN ON CARD                       O042600000187267
D09200000114714390010000010   360000001000000 230306036549MEGA LOAN ON CARD                       O042600000187267
D09200000124714390010000010   360000001000000 230306036550MEGA LOAN ON CARD                       O042600000187267
D09200000134714390010000010   360000001000000 230306036552MEGA LOAN ON CARD                       O042600000187267
D09200000144714390010000010   360000001000000 230306036554MEGA LOAN ON CARD                       O042600000187267
D09200000154714390010000010   360000001000000 230306036563MEGA LOAN ON CARD                       O042600000187267
D09200000164714390010000010   360000001000000 230306036563MEGA LOAN ON CARD                       O042600000187267
D09200000174714390010000010   360000001000000 230306036563MEGA LOAN ON CARD                       O042600000187267
D09200000184714390010000010   360000001000000 230306036563MEGA LOAN ON CARD                       O042600000187267
D09200000194714390010000010   360000001000000 230306036563MEGA LOAN ON CARD                       O042600000187267
D09200000204714390010000010   360000001000000 230306036563MEGA LOAN ON CARD                       O042600000187267
D09200000214714390010000010   360000001000000 230306036563MEGA LOAN ON CARD                       O042600000187267
D09200000224714390010000010   360000001000000 230306036563MEGA LOAN ON CARD                       O042600000187267
D09200000234714390010000010   360000001000000 230306036563MEGA LOAN ON CARD                       O042600000187267
D09200000244714390010000010   360000001000000 230306036563MEGA LOAN ON CARD                       O042600000187267
D09200000254714390010000010   360000001000000 230306036563MEGA LOAN ON CARD                       O042600000187267
D09200000264714390010000010   360000001000000 230306036563MEGA LOAN ON CARD                       O042600000187267
D09200000274714390010000010   360000001000000 230306036563MEGA LOAN ON CARD                       O042600000187267
D09200000284714390010000010   360000001000000 230306036563MEGA LOAN ON CARD                       O042600000187267
D09200000294714390010000010   360000001000000 230306036563MEGA LOAN ON CARD                       O042600000187267
D09200000304714390010000010   360000001000000 230306036563MEGA LOAN ON CARD                       O042600000187267
D09200000314714390010000010   360000001000000 230306036563MEGA LOAN ON CARD                       O042600000187267
D09200000324714390010000010   360000001000000 230306036563MEGA LOAN ON CARD                       O042600000187267
D09200000334714390010000010   360000001000000 230306036563MEGA LOAN ON CARD                       O042600000187267
D09200000344714390010000010   360000001000000 230306036563MEGA LOAN ON CARD                       O042600000187267
D09200000354714390010000010   360000001000000 230306036563MEGA LOAN ON CARD                       O042600000187267
D09200000364714390010000010   360000001000000 230306036563MEGA LOAN ON CARD                       O042600000187267
D09200000374714390010000010   360000001000000 230306036563MEGA LOAN ON CARD                       O042600000187267
D09200000384714390010000010   360000001000000 230306036563MEGA LOAN ON CARD                       O042600000187267
D09200000394714390010000010   360000001000000 230306036563MEGA LOAN ON CARD                       O042600000187267
D09200000404714390010000010   360000001000000 230306036563MEGA LOAN ON CARD                       O042600000187267
D09200000414714390010000010   360000001000000 230306036563MEGA LOAN ON CARD                       O042600000187267
D09200000424714390010000010   360000001000000 230306036563MEGA LOAN ON CARD                       O042600000187267
D09200000434714390010000010   360000001000000 230306036563MEGA LOAN ON CARD                       O042600000187267
D09200000444714390010000010   360000001000000 230306036563MEGA LOAN ON CARD                       O042600000187267
D09200000454714390010000010   360000001000000 230306036563MEGA LOAN ON CARD                       O042600000187267
D09200000464714390010000010   360000001000000 230306036563MEGA LOAN ON CARD                       O042600000187267
D09200000474714390010000010   360000001000000 230306036563MEGA LOAN ON CARD                       O042600000187267
D09200000484714390010000010   360000001000000 230306036563MEGA LOAN ON CARD                       O042600000187267
D09200000494714390010000010   360000001000000 230306036563MEGA LOAN ON CARD                       O042600000187267
D09200000504714390010000010   360000001000000 230306036563MEGA LOAN ON CARD                       O042600000187267
D09200000514714390010000010   360000001000000 230306036563MEGA LOAN ON CARD                       O042600000187267
D09200000524714390010000010   360000001000000 230306036563MEGA LOAN ON CARD                       O042600000187267
D09200000534714390010000010   360000001000000 230306036563MEGA LOAN ON CARD                       O042600000187267
D09200000544714390010000010   360000001000000 230306036563MEGA LOAN ON CARD                       O042600000187267
D09200000554714390010000010   360000001000000 230306036563MEGA LOAN ON CARD                       O042600000187267
D09200000564714390010000010   360000001000000 230306036563MEGA LOAN ON CARD                       O042600000187267
D09200000574714390010000010   360000001000000 230306036563MEGA LOAN ON CARD                       O042600000187267
D09200000584714390010000010   360000001000000 230306036563MEGA LOAN ON CARD                       O042600000187267
D09200000594714390010000010   360000001000000 230306036563MEGA LOAN ON CARD                       O042600000187267
D09200000604714390010000010   360000001000000 230306036563MEGA LOAN ON CARD                       O042600000187267
D09200000614714390010000010   360000001000000 230306036563MEGA LOAN ON CARD                       O042600000187267
D09200000624714390010000010   360000001000000 230306036563MEGA LOAN ON CARD                       O042600000187267
D09200000634714390010000010   360000001000000 230306036563MEGA LOAN ON CARD                       O042600000187267
D09200000644714390010000010   360000001000000 230306036563MEGA LOAN ON CARD                       O042600000187267
D09200000654714390010000010   360000001000000 230306036563MEGA LOAN ON CARD                       O042600000187267
D09200000664714390010000010   360000001000000 230306036563MEGA LOAN ON CARD                       O042600000187267
D09200000674714390010000010   360000001000000 230306036563MEGA LOAN ON CARD                       O042600000187267
D09200000684714390010000010   360000001000000 230306036563MEGA LOAN ON CARD                       O042600000187267
D09200000694714390010000010   360000001000000 230306036563MEGA LOAN ON CARD                       O042600000187267
D09200000704714390010000010   360000001000000 230306036563MEGA LOAN ON CARD                       O042600000187267
D09200000714714390010000010   360000001000000 230306036563MEGA LOAN ON CARD                       O042600000187267
D09200000724714390010000010   360000001000000 230306036563MEGA LOAN ON CARD                       O042600000187267
D09200000734714390010000010   360000001000000 230306036563MEGA LOAN ON CARD                       O042600000187267
D09200000744714390010000010   360000001000000 230306036563MEGA LOAN ON CARD                       O042600000187267
D09200000754714390010000010   360000001000000 230306036563MEGA LOAN ON CARD                       O042600000187267
D09200000764714390010000010   360000001000000 230306036563MEGA LOAN ON CARD                       O042600000187267
D09200000774714390010000010   360000001000000 230306036563MEGA LOAN ON CARD                       O042600000187267
D09200000784714390010000010   360000001000000 230306036563MEGA LOAN ON CARD                       O042600000187267
D09200000794714390010000010   360000001000000 230306036563MEGA LOAN ON CARD                       O042600000187267
D09200000804714390010000010   360000001000000 230306036563MEGA LOAN ON CARD                       O042600000187267
D09200000814714390010000010   360000001000000 230306036563MEGA LOAN ON CARD                       O042600000187267
D09200000824714390010000010   360000001000000 230306036563MEGA LOAN ON CARD                       O042600000187267
D09200000834714390010000010   360000001000000 230306036563MEGA LOAN ON CARD                       O042600000187267
D09200000844714390010000010   360000001000000 230306036563MEGA LOAN ON CARD                       O042600000187267
D09200000854714390010000010   360000001000000 230306036563MEGA LOAN ON CARD                       O042600000187267
D09200000864714390010000010   360000001000000 230306036563MEGA LOAN ON CARD                       O042600000187267
D09200000874714390010000010   360000001000000 230306036563MEGA LOAN ON CARD                       O042600000187267
D09200000884714390010000010   360000001000000 230306036563MEGA LOAN ON CARD                       O042600000187267
D09200000894714390010000010   360000001000000 230306036563MEGA LOAN ON CARD                       O042600000187267
D09200000904714390010000010   360000001000000 230306036563MEGA LOAN ON CARD                       O042600000187267
D09200000914714390010000010   360000001000000 230306036563MEGA LOAN ON CARD                       O042600000187267
D09200000924714390010000010   360000001000000 230306036563MEGA LOAN ON CARD                       O042600000187267
D09200000934714390010000010   360000001000000 230306036563MEGA LOAN ON CARD                       O042600000187267
D09200000944714390010000010   360000001000000 230306036563MEGA LOAN ON CARD                       O042600000187267
D09200000954714390010000010   360000001000000 230306036563MEGA LOAN ON CARD                       O042600000187267
D09200000964714390010000010   360000001000000 230306036563MEGA LOAN ON CARD                       O042600000187267
D09200000974714390010000010   360000001000000 230306036563MEGA LOAN ON CARD                       O042600000187267
D09200000984714390010000010   360000001000000 230306036563MEGA LOAN ON CARD                       O042600000187267
D09200000994714390010000010   360000001000000 230306036563MEGA LOAN ON CARD                       O042600000187267
D09200001004714390010000010   360000001000000 230306036563MEGA LOAN ON CARD                       O042600000187267
D09200001014714390010000010   360000001000000 230306036563MEGA LOAN ON CARD                       O042600000187267
D09200001024714390010000010   360000001000000 230306036563MEGA LOAN ON CARD                       O042600000187267
D09200001034714390010000010   360000001000000 230306036563MEGA LOAN ON CARD                       O042600000187267
D09200001044714390010000010   360000001000000 230306036563MEGA LOAN ON CARD                       O042600000187267
D09200001054714390010000010   360000001000000 230306036563MEGA LOAN ON CARD                       O042600000187267
D09200001064714390010000010   360000001000000 230306036563MEGA LOAN ON CARD                       O042600000187267
D09200001074714390010000010   360000001000000 230306036563MEGA LOAN ON CARD                       O042600000187267
D09200001084714390010000010   360000001000000 230306036563MEGA LOAN ON CARD                       O042600000187267
D09200001094714390010000010   360000001000000 230306036563MEGA LOAN ON CARD                       O042600000187267
D09200001104714390010000010   360000001000000 230306036563MEGA LOAN ON CARD                       O042600000187267
D09200001114714390010000010   360000001000000 230306036563MEGA LOAN ON CARD                       O042600000187267
D09200001124714390010000010   360000001000000 230306036563MEGA LOAN ON CARD                       O042600000187267
D09200001134714390010000010   360000001000000 230306036563MEGA LOAN ON CARD                       O042600000187267
D09200001144714390010000010   360000001000000 230306036563MEGA LOAN ON CARD                       O042600000187267
D09200001154714390010000010   360000001000000 230306036563MEGA LOAN ON CARD                       O042600000187267
D09200001164714390010000010   360000001000000 230306036563MEGA LOAN ON CARD                       O042600000187267
D09200001174714390010000010   360000001000000 230306036563MEGA LOAN ON CARD                       O042600000187267
D09200001184714390010000010   360000001000000 230306036563MEGA LOAN ON CARD                       O042600000187267
D09200001194714390010000010   360000001000000 230306036563MEGA LOAN ON CARD                       O042600000187267
D09200001204714390010000010   360000001000000 230306036563MEGA LOAN ON CARD                       O042600000187267
D09200001214714390010000010   360000001000000 230306036563MEGA LOAN ON CARD                       O042600000187267
D09200001224714390010000010   360000001000000 230306036563MEGA LOAN ON CARD                       O042600000187267
D09200001234714390010000010   360000001000000 230306036563MEGA LOAN ON CARD                       O042600000187267
D09200001244714390010000010   360000001000000 230306036563MEGA LOAN ON CARD                       O042600000187267
D09200001254714390010000010   360000001000000 230306036563MEGA LOAN ON CARD                       O042600000187267
D09200001264714390010000010   360000001000000 230306036563MEGA LOAN ON CARD                       O042600000187267
D09200001274714390010000010   360000001000000 230306036563MEGA LOAN ON CARD                       O042600000187267
D09200001284714390010000010   360000001000000 230306036563MEGA LOAN ON CARD                       O042600000187267
D09200001294714390010000010   360000001000000 230306036563MEGA LOAN ON CARD                       O042600000187267
D09200001304714390010000010   360000001000000 230306036563MEGA LOAN ON CARD                       O042600000187267
D09200001314714390010000010   360000001000000 230306036563MEGA LOAN ON CARD                       O042600000187267
D09200001324714390010000010   360000001000000 230306036563MEGA LOAN ON CARD                       O042600000187267
D09200001334714390010000010   360000001000000 230306036563MEGA LOAN ON CARD                       O042600000187267
D09200001344714390010000010   360000001000000 230306036563MEGA LOAN ON CARD                       O042600000187267
D09200001354714390010000010   360000001000000 230306036563MEGA LOAN ON CARD                       O042600000187267
D09200001364714390010000010   360000001000000 230306036563MEGA LOAN ON CARD                       O042600000187267
D09200001374714390010000010   360000001000000 230306036563MEGA LOAN ON CARD                       O042600000187267
D09200001384714390010000010   360000001000000 230306036563MEGA LOAN ON CARD                       O042600000187267
D09200001394714390010000010   360000001000000 230306036563MEGA LOAN ON CARD                       O042600000187267
D09200001404714390010000010   360000001000000 230306036563MEGA LOAN ON CARD                       O042600000187267
D09200001414714390010000010   360000001000000 230306036563MEGA LOAN ON CARD                       O042600000187267
D09200001424714390010000010   360000001000000 230306036563MEGA LOAN ON CARD                       O042600000187267
D09200001434714390010000010   360000001000000 230306036563MEGA LOAN ON CARD                       O042600000187267
D09200001444714390010000010   360000001000000 230306036563MEGA LOAN ON CARD                       O042600000187267
D09200001454714390010000010   360000001000000 230306036563MEGA LOAN ON CARD                       O042600000187267
D09200001464714390010000010   360000001000000 230306036563MEGA LOAN ON CARD                       O042600000187267
D09200001474714390010000010   360000001000000 230306036563MEGA LOAN ON CARD                       O042600000187267
D09200001484714390010000010   360000001000000 230306036563MEGA LOAN ON CARD                       O042600000187267
D09200001494714390010000010   360000001000000 230306036563MEGA LOAN ON CARD                       O042600000187267
D09200001504714390010000010   360000001000000 230306036563MEGA LOAN ON CARD                       O042600000187267
D09200001514714390010000010   360000001000000 230306036563MEGA LOAN ON CARD                       O042600000187267
D09200001524714390010000010   360000001000000 230306036563MEGA LOAN ON CARD                       O042600000187267
D09200001534714390010000010   360000001000000 230306036563MEGA LOAN ON CARD                       O042600000187267
D09200001544714390010000010   360000001000000 230306036563MEGA LOAN ON CARD                       O042600000187267
D09200001554714390010000010   360000001000000 230306036563MEGA LOAN ON CARD                       O042600000187267
D09200001564714390010000010   360000001000000 230306036563MEGA LOAN ON CARD                       O042600000187267
D09200001574714390010000010   360000001000000 230306036563MEGA LOAN ON CARD                       O042600000187267
D09200001584714390010000010   360000001000000 230306036563MEGA LOAN ON CARD                       O042600000187267
D09200001594714390010000010   360000001000000 230306036563MEGA LOAN ON CARD                       O042600000187267
D09200001604714390010000010   360000001000000 230306036563MEGA LOAN ON CARD                       O042600000187267
D09200001614714390010000010   360000001000000 230306036563MEGA LOAN ON CARD                       O042600000187267
D09200001624714390010000010   360000001000000 230306036563MEGA LOAN ON CARD                       O042600000187267
D09200001634714390010000010   360000001000000 230306036563MEGA LOAN ON CARD                       O042600000187267
D09200001644714390010000010   360000001000000 230306036563MEGA LOAN ON CARD                       O042600000187267
D09200001654714390010000010   360000001000000 230306036563MEGA LOAN ON CARD                       O042600000187267
D09200001664714390010000010   360000001000000 230306036563MEGA LOAN ON CARD                       O042600000187267
D09200001674714390010000010   360000001000000 230306036563MEGA LOAN ON CARD                       O042600000187267
D09200001684714390010000010   360000001000000 230306036563MEGA LOAN ON CARD                       O042600000187267
D09200001694714390010000010   360000001000000 230306036563MEGA LOAN ON CARD                       O042600000187267
D09200001704714390010000010   360000001000000 230306036563MEGA LOAN ON CARD                       O042600000187267
D09200001714714390010000010   360000001000000 230306036563MEGA LOAN ON CARD                       O042600000187267
D09200001724714390010000010   360000001000000 230306036563MEGA LOAN ON CARD                       O042600000187267
D09200001734714390010000010   360000001000000 230306036563MEGA LOAN ON CARD                       O042600000187267
D09200001744714390010000010   360000001000000 230306036563MEGA LOAN ON CARD                       O042600000187267
D09200001754714390010000010   360000001000000 230306036563MEGA LOAN ON CARD                       O042600000187267
D09200001764714390010000010   360000001000000 230306036563MEGA LOAN ON CARD                       O042600000187267
D09200001774714390010000010   360000001000000 230306036563MEGA LOAN ON CARD                       O042600000187267
D09200001784714390010000010   360000001000000 230306036563MEGA LOAN ON CARD                       O042600000187267
D09200001794714390010000010   360000001000000 230306036563MEGA LOAN ON CARD                       O042600000187267
D09200001804714390010000010   360000001000000 230306036563MEGA LOAN ON CARD                       O042600000187267
D09200001814714390010000010   360000001000000 230306036563MEGA LOAN ON CARD                       O042600000187267
D09200001824714390010000010   360000001000000 230306036563MEGA LOAN ON CARD                       O042600000187267
D09200001834714390010000010   360000001000000 230306036563MEGA LOAN ON CARD                       O042600000187267
D09200001844714390010000010   360000001000000 230306036563MEGA LOAN ON CARD                       O042600000187267
D09200001854714390010000010   360000001000000 230306036563MEGA LOAN ON CARD                       O042600000187267
D09200001864714390010000010   360000001000000 230306036563MEGA LOAN ON CARD                       O042600000187267
D09200001874714390010000010   360000001000000 230306036563MEGA LOAN ON CARD                       O042600000187267
D09200001884714390010000010   360000001000000 230306036563MEGA LOAN ON CARD                       O042600000187267
D09200001894714390010000010   360000001000000 230306036563MEGA LOAN ON CARD                       O042600000187267
D09200001904714390010000010   360000001000000 230306036563MEGA LOAN ON CARD                       O042600000187267
D09200001914714390010000010   360000001000000 230306036563MEGA LOAN ON CARD                       O042600000187267
D09200001924714390010000010   360000001000000 230306036563MEGA LOAN ON CARD                       O042600000187267
D09200001934714390010000010   360000001000000 230306036563MEGA LOAN ON CARD                       O042600000187267
D09200001944714390010000010   360000001000000 230306036563MEGA LOAN ON CARD                       O042600000187267
T000000000194                                                                                          
