HPAYEXT    20240801                                                                                                                                      
D09400000014201910140987024   360000003000000D240729000000BIAYA TRANSFER MEGA LOAN ON CARD        000000000000                                        315
D09400000024201910068719698   360000003000000D240730000000BIAYA TRANSFER MEGA LOAN ON CARD        000000000000                                        315
D09400000034201910068901098   360000003000000D240731000000BIAYA TRANSFER MEGA LOAN ON CARD        000000000000                                        315
T000000000003                                                                                                                                            
