HSPDEXT    20240801                                                                                    
D09200000014201940061136442   360000100000000 240801082658MEGA LOAN ON CARD                       O042600000187267
D09200000024201910149116757   360000100000000 240801082674MEGA LOAN ON CARD                       O042600000187267
D09200000034890870058751232   360000100000000 240801082681MEGA LOAN ON CARD                       O042600000187267
D09200000044201910140987024   360000100000000 240801082728MEGA LOAN ON CARD                       O042600000187267
D09200000054201910068719698   360000100000000 240801082768MEGA LOAN ON CARD                       O042600000187267
D09200000064201910068901098   360000100000000 240801082787MEGA LOAN ON CARD                       O042600000187267
T000000000006                                                                                          
